{
  "contractName": "DappToken",
  "abi": [
    {
      "inputs": [],
      "payable": false,
      "stateMutability": "nonpayable",
      "type": "constructor"
    },
    {
      "constant": true,
      "inputs": [],
      "name": "totalSupply",
      "outputs": [
        {
          "internalType": "uint256",
          "name": "",
          "type": "uint256"
        }
      ],
      "payable": false,
      "stateMutability": "view",
      "type": "function"
    }
  ],
  "bytecode": "0x6080604052348015600f57600080fd5b50620f42406000819055506084806100286000396000f3fe6080604052348015600f57600080fd5b506004361060285760003560e01c806318160ddd14602d575b600080fd5b60336049565b6040518082815260200191505060405180910390f35b6000548156fea265627a7a723158201232f30ed534228d3110372f581ba91502be2f22921bd2ffad15341b956505c764736f6c63430005100032",
  "source": "pragma solidity ^0.5.0;\r\n\r\ncontract DappToken {\r\n//a contructor--set the value of initial number of tokens that we will haver\r\n//Set the total number of tokens\r\n//read the total number of tokens\r\n\r\nuint256 public totalSupply;\r\nconstructor() public {\r\n\r\ntotalSupply=1000000;\r\n\r\n}\r\n\r\n\r\n\r\n}\r\n",
  "sourcePath": "C:\\Users\\Kailas\\token-sale\\contracts\\DappToken.sol",
  "compiler": {
    "name": "solc",
    "version": "0.5.16+commit.9c3226ce.Emscripten.clang"
  },
  "schemaVersion": "3.0.23",
  "updatedAt": "2022-01-05T05:16:09.789Z",
  "networkType": "ethereum",
  "devdoc": {
    "methods": {}
  },
  "userdoc": {
    "methods": {}
  }
}