{
  "contractName": "RohSale",
  "abi": [
    {
      "inputs": [
        {
          "internalType": "contract Roh",
          "name": "_tokenContract",
          "type": "address"
        }
      ],
      "payable": false,
      "stateMutability": "nonpayable",
      "type": "constructor"
    },
    {
      "constant": true,
      "inputs": [],
      "name": "tokenContract",
      "outputs": [
        {
          "internalType": "contract Roh",
          "name": "",
          "type": "address"
        }
      ],
      "payable": false,
      "stateMutability": "view",
      "type": "function"
    }
  ],
  "bytecode": "0x608060405234801561001057600080fd5b506040516101a43803806101a48339818101604052602081101561003357600080fd5b8101908080519060200190929190505050336000806101000a81548173ffffffffffffffffffffffffffffffffffffffff021916908373ffffffffffffffffffffffffffffffffffffffff16021790555080600160006101000a81548173ffffffffffffffffffffffffffffffffffffffff021916908373ffffffffffffffffffffffffffffffffffffffff1602179055505060d0806100d46000396000f3fe6080604052348015600f57600080fd5b506004361060285760003560e01c806355a373d614602d575b600080fd5b60336075565b604051808273ffffffffffffffffffffffffffffffffffffffff1673ffffffffffffffffffffffffffffffffffffffff16815260200191505060405180910390f35b600160009054906101000a900473ffffffffffffffffffffffffffffffffffffffff168156fea265627a7a723158204cb04b896026c1cd7f33f05116daa0766422f8a0179c33b9c97c9a11133524b364736f6c63430005100032",
  "source": "pragma solidity ^0.5.0;\r\nimport \"./Roh.sol\";\r\ncontract RohSale{\r\n  address admin;\r\n  Roh public tokenContract;\r\n  constructor(Roh _tokenContract) public{\r\n    //assign an admin - external account connected tot he blockchain with special powers\r\n  admin=msg.sender;// person who deployed the contract\r\n    //token contract-\r\n  tokenContract=_tokenContract;\r\n    //set token price- how much ether it will cost when we sell our token\r\n\r\n\r\n  }\r\n}\r\n",
  "sourcePath": "C:\\Users\\Kailas\\token-sale\\contracts\\RohSale.sol",
  "compiler": {
    "name": "solc",
    "version": "0.5.16+commit.9c3226ce.Emscripten.clang"
  },
  "schemaVersion": "3.0.23",
  "updatedAt": "2022-01-08T17:22:30.244Z",
  "networkType": "ethereum",
  "devdoc": {
    "methods": {}
  },
  "userdoc": {
    "methods": {}
  }
}